:1000000000400020CD2B0000032C0000052C000038
:10001000072C0000092C00000B2C0000012C000014
:10002000012C0000012C0000012C00000D2C000010
:100030000F2C0000012C0000112C0000132C0000DC
:10004000152C0000651C0000192C00001B2C000062
:100050001D2C00001F2C0000212C0000232C000070
:10006000252C0000691C0000852000002B2C0000BE
:100070002D2C00002F2C0000312C0000332C000010
:10008000352C0000372C0000392C00003B2C0000E0
:100090003D2C00003F2C0000412C0000432C0000B0
:1000A0000D190000472C0000492C00004B2C0000CB
:1000B0004D2C00004F2C000000000000000000004C
:1000C0000000000000000000000000000000000030
:1000D0000000000000000000000000000000000020
:1000E0000000000000000000000000000000000010
:1000F0000000000000000000000000000000000000
:1001000010B5054C237833B9044B13B10448AFF351
:1001100000800123237010BD48060020000000006D
:10012000A43D000008B5064B1BB106480649AFF3D5
:1001300000800648036813B1054B03B1984708BD1A
:1001400000000000A43D00004C06002044060020F2
:1001500000000000154B002B08BF134B9D46A3F574
:10016000803A00218B460F461348144A121A02F0B7
:10017000B3FD0F4B002B00D098470E4B002B00D047
:1001800098470020002104000D000D48002802D0EF
:100190000C4803F0AFFB02F06BFD2000290002F0D9
:1001A00027FC02F055FD00BF0000080000400020C1
:1001B0000000000000000000480600209F0F002003
:1001C000F538000041390000204AD36A03F4705327
:1001D000B3F5805F35D0B3F5005F04D0B3F5006FA1
:1001E00004D11B4B00E01B4B18687047D36803F425
:1001F000E063B3F5007F16D008D8B3B1B3F5807FC4
:100200001DD1154B154AD86C154B12E0B3F5806F14
:100210001AD0B3F5A06F04D0B3F5407F0FD11148C9
:10022000704711487047114870470B4B104AD86C03
:10023000104BB0F1985F34BF10461846704700204D
:1002400070474FF4004070470B48704700800C40E7
:100250000800002004000020B081E00FC0CF6A0039
:1002600040B56400809FD500003FAB01C0D8A70017
:1002700040420F00804F1200406F400108B5FFF769
:10028000A3FF044B5B6803F00F03D840024B1860D8
:1002900008BD00BF00800C406C0F0020014B1868A7
:1002A000704700BF08000020044B1860044BDB6A55
:1002B0001B0501D5FFF7E2BF704700BF0800002013
:1002C00000800C4070474FF4004070474FF47A7044
:1002D00070470000014B1868704700BF0400002001
:1002E000044B1860044BDB6A9B0401D5FFF7C6BFC3
:1002F000704700BF0400002000800C40FEE70000B3
:100300000A494B6803F00702032A0CD8DFE802F021
:100310000202070723F0070343F0010303E023F081
:10032000070343F003034B60704700BF00000C401D
:10033000104A10B5104C11490244A2424B680BD828
:1003400003F00702023A012A23F0070394BF43F0A7
:10035000030343F001030BE0094A904208D803F07D
:100360000702023A012A23F0070398BF43F0020371
:100370004B6010BDFFDB0BFFFF23F40000000C40BF
:100380000024F400431EB3F5004F10B5044603D318
:1003900004488721FFF7B2FFB4FA84F4E0B2C0F159
:1003A0001F0010BD603A0000034B5A6DD20702D403
:1003B0001A6D1042FCD1704700800C40012810B526
:1003C000044604D90F4840F27711FFF797FF0E4B10
:1003D0006400986AE04000F00300022807D0032878
:1003E00009D001280BD1BDE81040FFF76CBFBDE874
:1003F0001040FFF76FBFFFF741FF400810BD00201E
:1004000010BD00BF603A000000800C40B0F5801FB6
:1004100038B504460D4604D3144840F2E111FFF705
:100420006DFF042D14D8DFE805F0030507090B0064
:10043000012206E0032204E0002202E0022200E0A2
:1004400004220B4B9A610A4B0822DC615A6206E0D7
:10045000064840F2FB11FFF751FF002038BDDA6A71
:100460005204FCD4024BD86938BD00BF603A00008A
:1004700000800C40C0F30312013A08B50123032A9F
:1004800038D8DFE802F002050A1F1E4A906801E032
:100490001C4A506800F00F0025E01B4B984208D022
:1004A00003F50433984209D1164B986EC0F303103C
:1004B00018E0144B986E00F00F0013E0134840F260
:1004C000BE211AE0124B984208D003F5043398423B
:1004D0000CD10C4B186FC0F3011003E0094B186FDF
:1004E00000F00300012303FA00F008BD07484FF4B1
:1004F000367102E0054840F2DF21FFF7FFFE0120E0
:1005000008BD00BF00800C4030040800603A0000C5
:1005100040051400C0F30313013B10B50C46032B38
:1005200000F29A80DFE803F002152E644B1EB3F54B
:10053000007F04D34C4840F21A31FFF7DFFE20461B
:10054000FFF720FF494B9A6822F00F021043986092
:1005500010BDB1F5007F04D9434840F22231FFF7C6
:10056000CDFEFFF7CDFE2046FFF70CFF3F4B5A684C
:1005700022F00F0210435860FFF780FEBDE81040E4
:10058000FFF7D6BE3A4B984204D003F504339842A5
:1005900014D029E0B1F5004F04D9334840F251316D
:1005A000FFF7ACFE0420FFF7FFFE2046FFF7EAFE50
:1005B0002E4B9A6E22F00F02104313E0B1F5004F5C
:1005C00004D9294840F25F31FFF798FE0420FFF775
:1005D000EBFE2046FFF7D6FE244B9A6E22F0F00287
:1005E00042EA0010986610BD1F4840F28B3136E099
:1005F000204B984204D003F50433984213D027E0EF
:10060000082904D9184840F29531FFF777FE4020B9
:10061000FFF7CAFE2046FFF7B5FE144B1A6F22F013
:100620000302104312E0082904D90F484FF46971FE
:10063000FFF764FE4020FFF7B7FE2046FFF7A2FE5B
:100640000A4B1A6F22F0300242EA0010186710BD00
:10065000054840F2B23102E003484FF46E71BDE844
:100660001040FFF74BBE00BF603A000000800C4016
:100670003004080040051400C0F30323013B70B5AB
:100680000D46052B10D8DFE803F016190306090CF8
:100690000023124C14E00123114C11E01023114CE3
:1006A0000EE00023104C0BE0104840F20D41BDE875
:1006B0007040FFF723BE00230D4C01E00D4C0023DA
:1006C000C0F3043613B11846FFF76EFE04F104744C
:1006D00006EBC406B600356070BD00BF40800C401C
:1006E00058800C4060800C4078800C40603A0000DC
:1006F00008800C4044800C4000F00F00013808B521
:1007000003282ED8DFE800F002141E341A4BDB6AEF
:1007100003F47053B3F5805F08D0B3F5005F29D0C0
:10072000B3F5006F0CBF0420052008BD032008BDF1
:10073000114B986A00F0030002281CD003280ED049
:10074000012808E00C4B9B6A03F00C03082B11D026
:100750000C2B04D0042B0CBF0320012008BD062065
:1007600008BD064840F25551FFF7C8FD002008BDFE
:10077000072008BD022008BD00800C40603A000040
:1007800000F47810B0F5202F08B53CD019D8B0F59A
:10079000802F2FD009D8002852D0B0F5003F57D174
:1007A000FFF712FD2F4B9B682AE0B0F5C02F25D034
:1007B000B0F5002F4CD10020FFF700FE294B9B6EB7
:1007C0001EE0B0F5B01F2CD00DD8B0F5901F23D08F
:1007D000B0F5A01F3CD10120FFF7F0FD214B1B6FAE
:1007E00003F0030316E0B0F5C01F22D0B0F5D01F10
:1007F00035D02DE0BDE80840FFF740BD00200CE0FB
:1008000003F00F0306E00020FFF7D8FD154B9B6EA9
:10081000C3F30313D84008BD0120BDE80840FFF72B
:10082000CDBD0120FFF7CAFD0E4B1B6FC3F30113B3
:10083000F0E70D48FFF760FF072810D0082803D124
:10084000BDE80840FFF7C0BC08484FF4B07102E0B3
:10085000064840F2B741FFF751FD002008BD0448AB
:1008600008BD00BF00800C4004001800603A000082
:10087000809FD500054B30B11A6D002AFCD1034B87
:1008800001225A6570475865704700BF00800C40D0
:10089000024BD868C0F30220704700BF00800C40B4
:1008A00070B5054605281CD8DFE800F00306090EE0
:1008B00012161D4BDC6A0DE01B4BDC6A0EE01A4B76
:1008C000DC6AC4F3074413E0174BDC6A240E0FE024
:1008D000154B1C6BE4B20BE0134B1C6BC4F30724E9
:1008E00006E012484FF4E761BDE87040FFF706BD2F
:1008F0000120FFF701FF0528064601D1FFF700FDA3
:100900000B4A052ED36823F4FF6323F0070343EA61
:10091000052545EA0404D46005D1FFF7AFFCBDE826
:100920007040FFF705BD70BDB081E00F603A000078
:1009300000800C40024BD868C0F30430704700BF01
:1009400000800C401F2810B5044604D9074840F227
:100950007671FFF7D3FC064B04F01F04DA6822F42B
:10096000F83242EA0434DC6010BD00BF603A000097
:1009700000800C40002070477047000010B504282C
:100980000FD8DFE800F00906181503001020202317
:1009900013E04020802310E04FF480704FF4007388
:1009A0000BE00C4840F2F671BDE81040FFF7A6BC22
:1009B0000120022301E004200823074C29B1206212
:1009C00022B1E26A1342FCD000E02362BDE810408D
:1009D00000F0BAB9603A000000800C4010B500F099
:1009E0000F04012C03D055D3032C26D952E0023931
:1009F000032909D8DFE801F00C0F020502200446A4
:100A00000BE00320012408E0264840F2C65144E0F0
:100A10000020042401E00120032401210A46FFF7FD
:100A2000ADFFFFF76DFC204B5C6200F08DF9FFF726
:100A300025FCBDE81040FFF77BBC0139052917D81C
:100A4000DFE801F01A030A161611012100200A46F8
:100A5000FFF794FF022310E0012001460246FFF752
:100A60008DFF012309E0114B01221A60032304E0EA
:100A70000C484FF4C26110E000230B4A022C916A2B
:100A80000BBF21F0030121F00C010B4341EA83036A
:100A9000936210BD034840F27261BDE81040FFF759
:100AA0002DBC00BF603A000000800C400808904355
:100AB000032808B508D0042809D001280BD1094B18
:100AC000186900F07F0008BD064BD86801E0054BAF
:100AD0005869C0B208BD044840F63201FFF70EFC69
:100AE000002008BD00800C40603A0000032810B5CB
:100AF0000C4613D0042820D001282DD17F2904D9F9
:100B0000194840F65201FFF7F9FB184B04F07F0437
:100B10001A6922F07F0214431C6110BDFF2904D919
:100B2000114840F65A01FFF7E9FB104BE4B2DA68CE
:100B300022F0FF021443DC6010BDFF2904D90A48EB
:100B400040F66201FFF7DAFB084BE4B25A6922F083
:100B5000FF0214435C6110BD034840F66A01BDE822
:100B60001040FFF7CBBB00BF603A000000800C4094
:100B700001280CD006D3022811D10A4B986F00F03F
:100B8000200008E0074B986F00F0020003E0054BDF
:100B9000986F00F00800003018BF01207047002057
:100BA000704700BF00800C40022838B504460D464F
:100BB00004D9044840F6B401FFF7A0FB024BE4005F
:100BC0001D5138BD603A0000040F90430728F8B566
:100BD00004460D4616461F4603D907484C21FFF729
:100BE0008DFB06F00706374305F47C15034B3D43A8
:100BF000043443F82450F8BD763A000000C00C409D
:100C00001A4B45F60E02D3F88400C3F88420184A24
:100C100000F00100128802F4AA71196202F4705106
:100C2000B1F5805F06D0B1F5005F08D0B1F5006F77
:100C300010D109E0D96A0906FCD5032108E0D96A78
:100C40008905FCD5042103E0D96A0907FCD50221F6
:100C5000064B5962D30702D4044B02221A6218B120
:100C6000024B0022C3F88420704700BF00800C4074
:100C700064060020094B0A4ADB6A9BB21380094ACA
:100C8000116941F00401116130BF08B1FFF7B8BF2D
:100C90005B0501D4FFF7F2BA704700BF00800C403B
:100CA0006406002000ED00E0134B1449DA6A10B529
:100CB00092B20A80D3F8841045F60E04C907C3F82F
:100CC000844048BF00214FF420741C6248BFC3F821
:100CD00084100B4B196941F00401196130BF18B140
:100CE000BDE81040FFF78CBF530503D4BDE81040AA
:100CF000FFF7C4BA10BD00BF00800C40640600209E
:100D000000ED00E0074B4AF6E8529A600C210822F9
:100D10001A6019601A6019601A6019601A60196007
:100D20001A60704700600C40072810B5044604D9CB
:100D300003484FF4B171FFF7E1FA024B5C6010BD5C
:100D40008C3A000000600C40024BDA6A024B1A80B9
:100D5000704700BF00800C4064060020032810B5D7
:100D6000044603D906484D21FFF7C8FA054BD3F8CE
:100D7000202122F4407242EA0424C3F8204110BD2D
:100D8000A23A000000600040052838B505460C4630
:100D900001D8032903D908486321FFF7AFFA2420BB
:100DA000684300F1804000F5C040036823F003036E
:100DB0001C43046038BD00BFA23A00000528F8B506
:100DC00005460C4616461F4601D80F2903D9194877
:100DD0009621FFF793FA072C17490CD8A0000F2390
:100DE00083408540D1F8002122EA030343EA05004D
:100DF000C1F800010DE0A4F1080080000F2383403A
:100E00008540D1F8042122EA030343EA0500C1F832
:100E100004010A490123214403FA04F4064B890022
:100E20000E60C1F88070C3F81C419DF81830C1F8FD
:100E30000031F8BDA23A0000006000404008831075
:100E40000528F8B505460C4616461F4601D80F2959
:100E500003D92248CB21FFF751FA76B1012324228E
:100E6000A34037B16A4302F1804202F5C0421361E8
:100E700003E002FB05F11A4A535024226A43072C6F
:100E800002F1804202F5C0420AD8A3000F21994026
:100E900006FA03F3506820EA01010B4353600CE0AB
:100EA00004F18041083989000F238B4006FA01F1D3
:100EB000906820EA0303194391606EB9012224234C
:100EC00002FA04F45D432FB105F1804505F5C045F4
:100ED0002C61F8BD024B5C51F8BD00BFA23A000086
:100EE00014600040036BDB0702D4436B1942FCD152
:100EF0007047000038B50A4B044698420D4601D1B0
:100F0000012903D907487F21FFF7F8F91DB1012D09
:100F100003D1606938BD206938BD002038BD00BFED
:100F200000200840B93A00000F4B70B598420446C3
:100F30000D46164604D1012902D8130C1B041BB11F
:100F40000A48B221FFF7DAF915B1012D04D070BDBE
:100F500004F11005042102E004F1140508212046E3
:100F6000FFF7C0FF2E6070BD00200840B93A0000B6
:100F700038B5094B044698420D4603D00748E12195
:100F8000FFF7BCF920460221FFF7ACFF0DB10123AA
:100F900000E00223636038BD00200840B93A000039
:100FA00029B1436B002BFCD101230363704701631C
:100FB00070470000264B70B5984205460C4604D099
:100FC000244840F24311FFF799F9237843B9AB68FD
:100FD000DA0705D528460221FFF784FF02236B605C
:100FE0006378A278002B14BF4FF4805300230AB11A
:100FF00043F48063E2780AB143F4006322790AB1D2
:1010000043F4007362790AB143F48073A2790AB1A0
:1010100043F04003E2790AB143F08003667A227A12
:10102000360146EA8206A27A2846164301211E436B
:10103000FFF758FF23782E6043B1AB68DB0705D478
:1010400028460221FFF74EFF01236B6070BD00BFF1
:1010500000200840B93A000038B50A4B04469842CF
:101060000D4601D1012904D9074840F29B11FFF731
:1010700045F91DB1012D03D1E06938BDA06938BD26
:10108000002038BD00200840B93A0000104B70B570
:10109000984204460D46164604D1012902D832F082
:1010A000FF0304D00B484FF4E871FFF727F915B19F
:1010B000012D04D070BD04F11805102102E004F1E7
:1010C0001C0520212046FFF70DFF2E6070BD00BFDC
:1010D00000200840B93A0000436B002BFCD10122EC
:1010E00002631E2242601F22036003614361836129
:1010F000C361C3628262036370470000034B1A6AD4
:10110000D20702D45A6A1042FCD17047000008404E
:10111000012810B5044603D907487621FFF7EEF8F9
:1011200024B1012C05D1054BD86810BD034B98683C
:1011300010BD002010BD00BFD33A000000000840E1
:10114000012838B504460D4602D811F07F4F03D070
:101150000848A621FFF7D2F814B1012C03D038BDFE
:101160000220054C01E0054C0420FFF7C7FF256075
:1011700038BD00BFD33A0000080008400C0008400A
:1011800010B504460120FFF7B9FF4FF086431C60FD
:1011900010BD0000054B30B15A6A002AFCD1034B48
:1011A00001221A6270471862704700BF00000840B1
:1011B000437810B504780BB144F0020483780BB186
:1011C00044F004040120FFF799FF014B1C6010BD9F
:1011D00000000840044B00221A621A609A60DA602C
:1011E000DA619A61704700BF0000084008B500202E
:1011F000FFF7C6FFBDE808400120FFF7C1BF0000B0
:1012000010B5044618B909483E21FFF777F8084B96
:101210001A6902F03F0222709A69DB6902F0F0025B
:10122000C3F303131343637010BD00BFE93A00001A
:10123000D0FF0FE008B50A4B5A68013205D10948C2
:101240005E21FFF75BF8002008BD1A68904201D1CB
:10125000586808BD044A08339342EDD1EFE700BF58
:101260000080E00FE93A00009081E00F38B50B4BA9
:10127000044698420D460BD003F58063984207D090
:1012800003F58063984203D005486521FFF736F8DF
:101290000DB1012300E00223636038BD000001406E
:1012A000023B000038B5234B054698420C460BD054
:1012B00003F58063984207D003F58063984203D01A
:1012C0001D488521FFF71AF823780BB902226A60BE
:1012D00000226A62E278A178120442EA0162A179EE
:1012E0000A43217942EA8122617942EA0122617846
:1012F00000290CBF002140210A43E17900290CBFDD
:10130000002180210A43217A00290CBF00212021DD
:101310000A43617A00290CBF002110210A43A17AF7
:1013200000290CBF002108210A432A600BB10123C8
:101330006B6038BD00000140023B0000244B70B5DB
:10134000984205460E4614460BD003F5806398423A
:1013500007D003F58063984203D01E48BE21FEF7F4
:10136000CDFF022E03D91B48BF21FEF7C7FF6378CC
:1013700022781B0643EA8263A27903361343A278DC
:10138000360143EA0243E27843EA0233227943EA30
:101390008223627943EA0223E279002A0CBF002209
:1013A0004FF400121343227A002A0CBF00224FF49C
:1013B00080121343627A002A0CBF002210221343CA
:1013C000A27A002A0CBF002204221343AB5170BD45
:1013D00000000140023B00000A4B10B59842044651
:1013E0000BD003F58063984207D003F580639842E1
:1013F00003D00548E421FEF781FF0023C4F88830BC
:1014000010BD00BF00000140023B0000194B10B5A9
:10141000984204460BD003F58063984207D003F549
:101420008063984203D01448F921FEF767FF022336
:10143000636040F2737200232360E360A2614FF6A1
:10144000FF72E2614CF6806223626362236363632E
:10145000E36323646364E36423656365E365C4F85D
:10146000882023676367A367E3670F23C4F884308A
:1014700010BD00BF00000140023B00000B4B10B547
:10148000984204460CD003F58063984208D003F5D7
:101490008063984204D0064840F22711FEF72EFFE1
:1014A0004CF68063C4F8883010BD00BF00000140D6
:1014B000023B0000044B41F67132DA639A6822F075
:1014C00001029A60704700BF00000C40034B9A680D
:1014D00022F001029A600022DA63704700000C409B
:1014E00030B5164D8DB002AC0FCD0FC40FCD0FC46B
:1014F00095E803000E2384E80300079302A84FF445
:1015000000430B9301F036FA00230CA800F82C3DA1
:101510008DF805308DF80630FFF74AFE084B0120A4
:10152000DA6942F00302DA61FFF72AFE054B4FF059
:101530008072C3F880211A600DB030BD303B0000CE
:101540000000084000E100E0092838B505460C46D7
:1015500000D821B904484FF49571FEF7CFFE034B34
:1015600003EBC5056C6038BD583B000078060020D1
:10157000092870B504460D46164606D84B1CDBB24A
:10158000182B02D8D3B23B2B04D9094840F24F1193
:10159000FEF7B4FE074B002213F8341003F8342092
:1015A00003EBC4025570C9B2967003F8341070BDD5
:1015B000583B000078060020092870B505460C4607
:1015C000164601D801B122B906484FF4B971FEF7A9
:1015D00095FE054B03EBC5056B782370AB78337034
:1015E00070BD00BF583B000078060020092810B5E8
:1015F000044604D904484FF4C571FEF77FFE034B3F
:1016000013F8340010BD00BF583B000078060020DE
:10161000092838B5044604D909484FF4D071FEF7BB
:101620006DFE084B03EBC40252681D4622B9044804
:1016300040F2A311FEF762FE012305F8343038BDF5
:10164000583B000078060020092810B5044604D94C
:10165000044840F2B911FEF751FE034B002203F893
:10166000342010BD583B00007806002070B50546B8
:1016700020B9144840F2D711FEF740FE0023124E65
:10168000124C3268934209DC04EBC302516819B969
:1016900044F83310556012E00133F0E73368082B4B
:1016A00004DD084840F2E711FEF728FE3368002207
:1016B000013344F8332004EBC304656033601846FB
:1016C00070BD00BF583B00006C060020C80600201B
:1016D00010B5041E03DB084B1B689C4204DD074861
:1016E00040F20221FEF70AFE054A002342F8343098
:1016F00002EBC404636010BD6C060020583B000080
:10170000C806002070B5041E0D4604DB0B4B1B6899
:101710009C4200DC21B90A4840F21D21FEF7EEFD93
:10172000084B03EBC40252681E4622B904484FF42A
:101730000871FEF7E3FD46F8345070BD6C060020DA
:10174000583B0000C806002010B5041E03DB074B01
:101750001B689C4204DD064840F23621FEF7CEFDB0
:10176000044B002243F8342010BD00BF6C0600205B
:10177000583B0000C806002010B5044620B90448B4
:1017800040F24A21FEF7BAFD024B1C6010BD00BFBB
:10179000583B00007006002038B5124B421E9A429A
:1017A000044604D9104840F26221FEF7A7FD0F4B12
:1017B0001B6823B90C4840F26521FEF79FFD0C4DD4
:1017C0004FF47A726B68E103B1FBF2F11944012026
:1017D00021F07F41FFF7B4FC0423AB61054B0122EC
:1017E0001A6038BDFEFF0100583B00007006002063
:1017F0000000084088030043034B00221A60034B9B
:1018000004229A61704700BF88030043000008402B
:101810001C4B421E9A4270B5044604D91A4840F245
:101820009621FEF76BFD72B6184E33685A1C1CBF2A
:101830000133336001F0D4F8154B326805465B681C
:1018400022B11249013A0A6002B962B6E4034FF4C8
:101850007A72B4FBF2F41C4424F07F449C4208D911
:101860000B4B5B68A3420CD201F0BAF8A842F7D048
:1018700070BD01F0B5F8A842FBD0054B5B68A342F0
:10188000FBD370BDFEFF0100583B0000680600203E
:1018900000000840054B5A6859689142FCD0034A41
:1018A000526859689142FCD0704700BF0000084060
:1018B00010B5044620B9044840F2E121FEF71EFDB0
:1018C000024B1C6010BD00BF583B00007406002096
:1018D00037B580B1002001F013F802AB43F8040DD6
:1018E000184601F0EDF9074C05460FCD0FC40FCD9A
:1018F0000FC42B682360044B1B6803B1984703B0E7
:1019000030BD00BF740F002074060020F8B5344CC1
:101910002369E5691D40E90703D501F053F8012368
:10192000A361AA0702D46B0758D54DE0A168002037
:1019300001F5004121F07F41FFF702FC0223A36182
:101940000120FFF7C5FF0024264B1B689C4212DCD8
:10195000254B53F8342062B153F83420013A43F850
:10196000342032B903EBC4035A6812B15B682046D5
:1019700098470134E8E71D491D4B4A6893F9000078
:101980000E469042CFD01A7000241A4911F8343014
:10199000B3B1E2008B189F7870687FB287420FD195
:1019A000587840B2013005D05878104B40B29B684F
:1019B000984205D18B185A6812B15B682046984747
:1019C00001340A2CE1D1AEE70B4B00221A60044B24
:1019D00004229A61094B1B6803B19847F8BD00BF08
:1019E000000008406C060020C8060020740F00208C
:1019F0000C000020780600208803004370060020B9
:101A000038B5044620B906484FF44971FEF776FC14
:101A1000044D0FCD0FC40FCD0FC42B68236038BD0C
:101A2000583B0000740F0020F7B50E46044620B95D
:101A30001E4840F24231FEF761FC0023236220463B
:101A400001F0A4FA1A4B01901A685AB9186001A85B
:101A500001F036F9174C05460FCD0FC40FCD0FC45A
:101A60002B682360144C0020E769E0616568FFF78C
:101A700087FB636A13F0060FFBD11EB90E4B9B6800
:101A80005B1B01E04FF400430B4CA360E3685D1B5C
:101A9000E560019800F08AFF002000F09BFF012024
:101AA000FFF76EFBE76103B0F0BD00BF583B0000DD
:101AB000980F0020740F00200000084010B5044665
:101AC00018B917485D21FEF719FC164B00221C605F
:101AD000154B4FF6FF71C3F81021C3F80821C3F866
:101AE0000C21C3F81C11114B08341A60083434F867
:101AF000102C196812B10A431A60F7E70A4AC2F8B3
:101B000008111B68C2F80C31094B0222C3F880216E
:101B10001A604FF40072C3F880211A6010BD00BF34
:101B2000703B00001C0700200060004018070020E8
:101B300000E100E0024B0022C3F81021704700BF13
:101B400000600040044B4FF6FF72C3F81C21034AAB
:101B50001268C3F810217047006000401807002089
:101B60000F2810B5044603D90448AB21FEF7C6FB85
:101B7000034B002223449B001A6010BD703B000001
:101B8000800883100F2810B5044603D90748BF21E9
:101B9000FEF7B4FB012202FA04F1054BC3F81C1155
:101BA000044B23449B001A6010BD00BF703B000033
:101BB0000060004080088310254B264A2DE9F0473D
:101BC000D3F80490D2F81431D2F8102112EA0308A5
:101BD0003CD0214B1C6808EA0404002C33D0B4FA32
:101BE00084F2D2B2C2F11F060127B740072E24EAC1
:101BF0000704184B05DCD3F80021B30022FA03F3E5
:101C000005E0D3F80431C2F117029200D34003F08B
:101C1000070324225A43114B9B581F42104B0CBF01
:101C20004FF0000A4FF0010A1D68083535F8083CEE
:101C3000002BD2D03B42F8D055F8043C30465146F8
:101C40004A469847F1E7034BC3F81C81BDE8F0878B
:101C50000000084000600040180700201C600040A1
:101C60001C070020FFF7A8BFFFF7A6BF10B5054C63
:101C700023685888FFF790FD2368034A5B68107853
:101C8000984710BD240700202807002013B50446FC
:101C900018B91F486521FEF731FB63681BB91C4862
:101CA0006621FEF72BFB1B4B1B4801211C60FEF736
:101CB000E3FC00200024014603460122FFF7C0F8A0
:101CC00020462146224623460094FFF777F801215B
:101CD00020460A462346FFF7B3F82046224623460D
:101CE00000940121FFF76AF82046234602210122D1
:101CF000FFF7A6F820460094022122462346FFF76C
:101D00005DF8064802B0BDE81040FFF735BD00BFE2
:101D1000843B00002407002000C202006D1C00006C
:101D2000012838B508D0022803D028BB0124234657
:101D300004E00724032301E0042402230F4D2A7842
:101D400041B1934218D1FFF757FD02340023E4B2AA
:101D50002B7009E082B92B70094B621C1A70094B79
:101D60001B681888FFF718FD064B20461B685B6848
:101D70009847054B01221A7038BD00BF200700208C
:101D800028070020240700209E0F002013B52748B5
:101D90000DF1060100F0B2FBBDF8062040F6150378
:101DA0009A4201D000203FE00DF10601204800F0EA
:101DB000A5FB0DF106011F48BDF8064000F09EFB93
:101DC000BDF806300DF106011C441B4800F096FBDF
:101DD00004F61504BDF80630A4B218480DF106014A
:101DE0001C4400F08BFBBDF80630A4B2A342D9D14D
:101DF0000DF106010E4800F081FBBDF80620104BE6
:101E00000DF106010B481A6000F078FBBDF80620C2
:101E10000C4B09480DF106011A6000F06FFBBDF88C
:101E20000620094B01201A6002B010BD42070020B5
:101E30003C0700203E070020440700202A0700201E
:101E400028000020100000201C0000200A4B10B5C4
:101E50001A787AB90124094821461C70FFF706FA5E
:101E6000074B6FF001025B011C60064B1A60064BCA
:101E70000A221A6010BD00BF300700200008014090
:101E80009C0F10212C0700202000002010B5064CCC
:101E9000237843B1054B1B782BB1FFF777FF044A3A
:101EA00000232370136010BD240000204007002091
:101EB000800A0C42F7B50123002006210422FEF718
:101EC000BFFF0020034603210422FEF7B9FF0220D2
:101ED0000024024607210123FEF7B2FF022007215A
:101EE000224623460094FEF769FF0220024606219F
:101EF0000123FEF7A5FF0621224623460220009477
:101F0000FEF75CFF4748FFF7B1FB474B1860FFF750
:101F1000D1FA032000F042FC10B9032000F09CFA33
:101F2000424800F055FB424800F052FB414800F0A7
:101F30004FFB414800F04CFB404800F049FBFFF7E5
:101F400025FF3F4F3F4E38B13F4B01221A703F4BA8
:101F50001B683B60002333703D480121FEF78CFB7A
:101F60003C4801213C4DFEF787FB3C480121FEF730
:101F700083FB01213A48FEF77FFB2846FFF746FA2C
:101F800028463849FFF78EF949F64043364C01227E
:101F9000EB6100204FF080734FF4E811FEF716FE5E
:101FA00001212F48FEF768FB2046FFF72FFA204655
:101FB00000212E4AFFF7C2F9204601212C4AFFF7E3
:101FC000BDF90422022009210023FEF739FFA36A8C
:101FD000204643F00213A3624FF47A43E3613B6867
:101FE00024496364FFF75EF9EB684FF4806243F0C5
:101FF0000103EB60204B28461A600121FFF736F9F8
:1020000020460121FFF732F9337823B1FFF71EFF95
:1020100010221A4B03E0FFF719FF194B32221A6006
:1020200003B0F0BD8D1E0000140000204207002008
:102030003C0700203E070020440700202A0700201C
:102040001800002024000020400700202800002065
:1020500000C20200005202000004014000A202007F
:1020600000620200A13B000000080140AC3B000000
:10207000B73B0000963B000000E100E01C000020A0
:1020800020000020504AF8B51368013313604F4A0E
:102090001169C90740F19380012191614C490A7887
:1020A000AAB113F00F0012D14A4A0C781368013319
:1020B000B3EB440F136004DC474A03F001031360E1
:1020C00005E00C7864000334A342C8BF10600B78AD
:1020D000032B424B29D1424D424C2F784248434A70
:1020E000434ED4F800C07FB10768BC45CCBF206820
:1020F0000068176834683C441460126882421DDD31
:102100003A4A106000220EE00768BC45B4BF206860
:102110000068176834683C1B1460126882420DDA4C
:10212000324A106001222A7008E0294A12782AB93E
:102130001A68632A04DC1A68013200E064221A601B
:102140001B68264E002B3ADD2A4D01232B602A48BE
:10215000264B426C1C68A24204460BDA24490968EB
:1021600030684143642091FBF0F10A4419688A42C7
:102170000FDC0FE01F68BA420EDD1D4909683068A8
:1021800041436FF0630091FBF0F10A4419688A4201
:1021900000DA1A68626412E00B7803F0FF0473B986
:1021A000164A1368013B002B136008DC2146FFF739
:1021B0005DF8134B2C605B011C60124B1C70124BC2
:1021C00001221A70F8BD00BF34070020000401404E
:1021D0002400002038070020800A0C422C07002031
:1021E00029070020100000202800002018000020EF
:1021F0001C0000208C010C4200080140200000203F
:102200009C0F1021300700209E0F00205D4B2DE910
:10221000F04104461868411C02D01E21FFF772FAF3
:10222000FFF714FE631E062B00F2AA80DFE803F01E
:102230000404A82A2AA84E00534B1B78032B00F253
:102240009F80DFE803F002070714012C40F098801C
:102250004E4B22E04E4B4F4A196812680A441A60EE
:10226000196848F6A042914240F38A8045E0494B04
:102270001A680132B2F5807F1A6040F381804FF412
:1022800080723AE0404B1B78032B79D8DFE803F0EB
:1022900002080816042C73D13F4B1A683C4B2CE003
:1022A0003B4B3C4A196812688A1A1A60196844F252
:1022B0004F62914264DC44F250621EE0354B1A6872
:1022C000013A002A1A605BDC012216E02E4B1A78D4
:1022D000D2B2012A14D00CD3022ADFF8B0802C4CE1
:1022E00016D122680021C8F800202C4A1170032260
:1022F0000BE001221A70274B10221A60BDE8F08112
:10230000234A1168244A116002221A70BDE8F08144
:1023100000221A7072B6224E1F4D336821485A1C93
:1023200018BF013340F6150118BF336000F0AEFA54
:102330002F681D48BFB2394600F0A8FAD8F800103F
:102340001A4889B20F4400F0A1FA124B07F615079C
:102350001B68BFB299B20F441548BFB200F096FA9D
:102360001448394600F092FA336823B10C4A013B15
:10237000136003B962B6104B00221A602B68236009
:10238000BDE8F0811400002024000020100000208F
:10239000180000201C000020280000202907002031
:1023A00068060020420700203C0700203E0700206E
:1023B000440700202A070020800A0C4208B50A4B77
:1023C0001B7863B959B9072801D1084B02E00628E8
:1023D00003D1074B1A68074B1A60FFF737FD064B0E
:1023E00001221A7008BD00BF240000202800002030
:1023F00010000020180000209E0F00204268036893
:102400009342194605D8096804330131F8D00020F9
:10241000704701207047000037B590E8280004336A
:10242000AB42184610D8046804330134F8D142EAAC
:10243000014202A941F8042D042201F001FB28B158
:1024400004488521FDF75AFF002000E0012003B079
:1024500030BD00BFC23B000073B5224B80B2019378
:10246000214B4FF4FF321880002305B2AB421F4CC2
:102470000ADA44F8332002F5FE7104EBC30461600C
:102480000133A2F50072F0E7013D04EBC506002D13
:102490000CDB3046FFF7B2FF28B9306801F0D8FAFC
:1024A00008B100201CE0013D083EF0E7104D00237C
:1024B0002B60104B4FF0FF321A60206801A90422F4
:1024C00001F0BEFA0028ECD12A68084B0A4953F8FB
:1024D0003200042201F0B4FAD0F1010038BF00202C
:1024E00002B070BD010000FF4C0F00204807002023
:1024F000300000202C00002034000020134B70B569
:102500001B7806460C4623B911484FF4F871FDF7C5
:10251000F5FE104B32881D680F49561EB6B24FF6B5
:10252000FD7001EBC50386425B680BD851F835009E
:10253000834207D953F80419B2EB114FF8D1218027
:10254000012070BD0020208070BD00BF4A0F002018
:10255000C23B00003000002048070020174BF7B5B1
:102560001B7807462BB9164840F24621FDF7C6FEF8
:1025700022E0144A4FF6FF731349019313680E4685
:1025800001EBC3035C68154600232968224656F810
:1025900031108C420BD938885188043C8842F4D1E0
:1025A000104601A9042201F04BFA0123EDE71BB10B
:1025B000064B1A88013A1A8003B0F0BD4A0F00207A
:1025C000C23B000030000020480700204E0F0020D2
:1025D000084B10B51A8811B27F2909DC064C01326C
:1025E00021881A80013189B201802180012010BD2B
:1025F000002010BD4E0F0020480F00200B4B10B5DF
:102600001A681C46013204D1094840F29621FDF7B0
:1026100075FE2268074B53F8323018686FF07F431D
:1026200020F07F40984208BF002010BD30000020FD
:10263000C23B0000480700202DE9F7434F4D80467C
:102640002B68894601334E4E4E4C1AD14E4A3368A0
:10265000B2F90020013393422B60A4BF00232B600A
:10266000286804EBC000FFF7C9FE50B94748F921BC
:10267000FDF744FE414B1A68424B53F8320001F01B
:10268000E7F92B68424954F83300042201F0D8F9E5
:10269000B8F1000F09D0394BB8F800101868394B61
:1026A0004A4603EBC000FFF7B7FE336804EBC303F1
:1026B000D3F80490336854F83330994531D959F838
:1026C00004294FF6FD70130C99B201F1FF3E1FFA79
:1026D0008EFE864523D8B8F1000F04D02D48B0F9FE
:1026E000000083421BDC2B68D80004EB000E54F87A
:1026F0003330DEF804C00433634508D853F804EBE4
:10270000B1EB1E4F0BD0BEF1FF3FF5D101E0002F22
:10271000D0D0204492B2FFF77FFE0127CAE70027FE
:10272000C8E7FFF76BFF2B6801900BB901300190F0
:10273000019A02A942F07F4241F8042D54F8330077
:102740000422104F01F07CF9A0B9336857F8330028
:1027500001F07EF970B92B680F4957F83300042255
:10276000064C01F06DF928B92368054A13604FF053
:10277000FF33236040B203B0BDE8F0832C0000209B
:1027800030000020480700204C0F0020C23B000012
:1027900038000020480F002034000020344B2DE981
:1027A000F0411A7804461D4622B1324840F27F11AA
:1027B000FDF7A4FD01239C422B702F4B98BF0224F0
:1027C0001C804FF4FF3200232C4F02F5FE7047F8B7
:1027D000332007EBC3010133A3424860A2F5007226
:1027E000F2D30026354657F80680B81998F803301A
:1027F000AA2B08D0FF2B0CD073B9214A11680131E4
:102800002FD115600BE01F4B1A6801322CD11D60CF
:1028100005E0FFF7F3FD10B9404601F019F9013565
:10282000A54206F10806DED3164A154B1168186852
:102830004D1C04D1013018BF0120BDE8F081441CBB
:1028400008D119601060104957F8080C042201F0F3
:10285000F7F803E000200146FFF7EEFE0120BDE897
:10286000F0811846BDE8F0810020BDE8F08100BF8E
:102870004A0F0020C23B00004C0F002048070020F8
:10288000300000202C00002034000020174B37B50A
:102890001B7804460D4623B9154840F21B21FDF76D
:1028A0002DFD144B2288B3F900309A4204DD104804
:1028B00040F21E21FDF722FD20460DF10601FFF733
:1028C0001DFE18B1BDF80630AB420DD00A4B218871
:1028D00018680A4B2A4603EBC000FFF79DFD18B9A4
:1028E00020462946FFF7A8FE03B030BD4A0F00205E
:1028F000C23B0000480F00203000002048070020A5
:102900001049114A03460020126830B508600F498B
:102910000C680F49086800FB04200E4A11680E4A33
:1029200021B161431588B1FBF5F108440B491288C8
:102930004968B1FBF2F21044024A0121116003B16F
:10294000186030BD80030043580F0020540F002052
:102950005C0F0020600F0020500F00200000084096
:10296000002208B5026200F011FB014B186008BD9F
:10297000580F0020426A094B00211A80084B92B27E
:10298000196008494FF0807393FBF2F30B605343D7
:102990000549C3F180730B60FFF7E2BF500F0020C1
:1029A000540F00205C0F0020600F0020014B1860C6
:1029B000704700BF580F0020014B1868704700BFD8
:1029C000580F0020024B186801301860704700BF94
:1029D000540F0020014B1860704700BF540F0020B7
:1029E000014B1868704700BF540F0020704700006B
:1029F0005F4B37B51B681B0E10D15E4B1A6822F077
:102A000070021A60A3F57F532C3B1A6822F06042D3
:102A10001A601A6862F060621A6001E0032B0BD83A
:102A2000554B1A6822F4FC521A60544A0023136072
:102A3000536093611362936301A8FEF7E1FB9DF875
:102A40000430012B0FD19DF805302BB94B4B1A6880
:102A500042F002021A6001E0012B04D8484B1A68C8
:102A600042F001021A60474B1A68474B9A4220D83D
:102A7000434B1A6842F490421A60444A1068116845
:102A80001568146805F4FE4204F07F04224301F047
:102A90007F0142EA0141C0F306203D4A41EA00615C
:102AA00011603C4A11683C4A11601A6822F4904255
:102AB0001A6001210A460020FDF760FF01210A4645
:102AC0000220FDF75BFF01200421FDF787FF0021B5
:102AD0000A460320FDF752FF30480221FDF77EFF32
:102AE0002F480221FDF77AFF2E480121FDF7C4FD92
:102AF0002C480121FDF70EFD2B480121FDF7BCFDFF
:102B00002A480121FDF7B8FD29480121FDF7B4FD50
:102B1000FFF76CFF0422012300210220FEF790F949
:102B2000FFF7C8F92348FFF7B1F82348FEF7C6FFBF
:102B3000FEF7D6FC4FF4FA70FEF76AFE1F4B002238
:102B40001A60FEF7FFFF1E4B1A7872B91D4B1B88E7
:102B50009BB233B11C4B1A6922F004021A6130BFD8
:102B6000F1E70120FEF786F8EDE700221A70EAE7A8
:102B7000FC81E00F0CA00C4020600C4040800C4019
:102B800044800C40F081E00FFFB98A4CB481E00F23
:102B900034200040C881E00F2C40004002000600B5
:102BA000030012003004080000230400108102001A
:102BB00000C20200903C0000783C0000800A0C42F9
:102BC0009E0F00209C0F002000ED00E0074880478A
:102BD0000749084A084B9B1A40F30580043BC85834
:102BE000D0503FF7FBAF054800470000C50200008A
:102BF000B03D000000000020440600205501000008
:102C0000FEE7FEE7FEE7FEE7FEE7FEE7FEE7FEE79C
:102C1000FEE7FEE7FEE7FEE7FEE7FEE7FEE7FEE78C
:102C2000FEE7FEE7FEE7FEE7FEE7FEE7FEE7FEE77C
:102C3000FEE7FEE7FEE7FEE7FEE7FEE7FEE7FEE76C
:102C4000FEE7FEE7FEE7FEE7FEE7FEE7FEE7FEE75C
:102C500008B50021044600F0D5FD044B1868C36B8D
:102C600003B19847204600F0DBFE00BFD43C0000D3
:102C700070B50F4E0F4D761BB61007D0043D0024E3
:102C8000013455F8043F9847A642F9D10A4E0B4D3E
:102C900000F0C8FE761BB61008D0043D00240134B5
:102CA00055F8043F9847A642F9D170BD70BD00BFEA
:102CB0003806002038060020400600203806002094
:102CC000024B19687C3100F003B800BF6804002093
:102CD000002200F0D5BB00BFF0B4840743D0541EDF
:102CE000002A3ED0CDB2034603E0621E002C38D04D
:102CF000144603F8015B9A07F7D1032C2AD9CDB209
:102D000045EA05250F2C45EA054515D9A4F110071C
:102D10003F0903F1100606EB07161A4615605560C9
:102D20009560D5601032B242F8D104F00F0401373B
:102D3000032C03EB07130DD91E462246043A032A3F
:102D400046F8045BFAD8221F22F00302043213442F
:102D500004F003042CB1C9B21C4403F8011BA342C4
:102D6000FBD1F0BC704714460346C6E72DE9F04797
:102D7000016882B03B29044600F2C08041683B29CB
:102D800000F28F80A168172900F29A8025690B2D27
:102D900000F2A68063699F0734D17A4AD91782FB73
:102DA00003066420C1EB661100FB1131002968D0D5
:102DB000E2681D26002A744F29DC2946DFF8C4C1C9
:102DC00064254FF4C87808E0012B00F0A48057F880
:102DD000230019460244002A39DC4B1E0029F3D196
:102DE00061694B1E9E07636140F098808CFB03066F
:102DF000D817C0EB661005FB1033002B00F0918054
:102E00001D268CE01C26E2685F4F002AD5DDDFF826
:102E100074814FF0000C4FF064094FF4C87A6B1CBA
:102E2000002107EB85050AE068589042C0EB0202DA
:102E30000FDA0C2BE26023610ED001330431022B38
:102E4000F2D1964205DA921BE2602361F5E7236135
:102E5000E26002B0BDE8F0876169C4F810C04B1CA5
:102E60009807636102D01C260025D8E788FB03057C
:102E7000D817C0EB651009FB1033002B5FD01D265F
:102E8000F2E703F26C7382FB0312D917C1EBE21273
:102E90004FF4C87101FB1233002B0CBF1D261C26FA
:102EA000B1E73C22684600F02BFDA2680099019B27
:102EB0001144002BA1605FDB172963607FF666AFCA
:102EC0001822684600F01CFD9DE80C00E168002B0C
:102ED0000A44E26041DB2569A3600B2D7FF65AAFFF
:102EE00029460C22684600F00BFD9DE82800626927
:102EF000002D1344636135DB25614CE73C226846B5
:102F000000F0FEFC9DE80C006168002B114461603C
:102F10002DDB236033E7304619465BE71C260B2385
:102F200055E701F26B718CFB0130CB17C3EBE0135B
:102F300008FB131100290CBF1D261C26EFE701F228
:102F40006D7188FB0130CB17C3EBE0130AFB131143
:102F500000290CBF1D261C2686E71833013AA36002
:102F6000E26013E70C35013B2561636113E73C33F5
:102F700001392360616002E73C3301396360A1607D
:102F800001E700BF1F85EB51083D00002DE9F84F18
:102F9000064600F0EDFC07463046FFF7E7FEC64C5C
:102FA000336972683568F068C2EB0212B16854F890
:102FB000234005EB82054FF4616C0138012B0CFBBB
:102FC000015C0444756902DDA80700F0BF8005F5C7
:102FD0001C53103344F620629342F46100F24681A0
:102FE000462D00F3898051D0452D4CD0B348452360
:102FF00040F26D194FF0640E4FF4C8781EE080FB6C
:1030000003A14FEAE37BCBEB61110EFB113103F21D
:103010006C724FEAE27A002940F0078180FB02B12E
:10302000CAEBE11A08FB1A22002A0CBF4FF4B77250
:103030004A46013BAB42C2EB040408D09A07DED0FB
:10304000013B40F26D12AB42C2EB0404F6D1AB0778
:1030500019D19A4BEA1783FB05106421C2EB601269
:1030600001FB1252002A40F0F78005F26C7283FBDC
:1030700002A3D117C1EBE3134FF4C87101FB132274
:10308000002A00F0E98040F26D13E41A8C4B03FB38
:1030900004C800F0A9FB8B4B1B68002B00F0C1801B
:1030A0007069326A7B6800F26C70012AB4BF924684
:1030B0004FF0010A834259D000F016F9002855D18B
:1030C000D146B9F1010F40F0AD80FB6B984400F0A0
:1030D0008DFB7D4A043484FB0223E2172344C2EBB8
:1030E000A303C3EBC303E31A48BF0733C6F820901A
:1030F000B3614046BDE8F88F7048462340F26D1931
:103100004FF0640E4FF4C8781BE080FB03B14FEA28
:10311000E37BCBEB61110EFB113103F26C724FEAD2
:10312000E27A01BB80FB02B1CAEBE11A08FB1A226A
:10313000002A0CBF4FF4B7724A460133AB42144425
:10314000A4D09907E1D040F26D12F6E75B4BEA1785
:1031500083FB05106421C2EB601201FB1252002AAE
:1031600066D0013433E74FF4B772E6E7B96B386ADB
:10317000FB6BFA69C0EB0109C845C3EB020202DB35
:10318000C91A88459CDB3968002960D0904566DA09
:103190004FF00009BAF1000F93DB89EA0A0ABAF18D
:1031A000010F8ED1C31AB9F1000F00D15B42326812
:1031B00030461A4432609844D6F80CA0FFF7D6FD8A
:1031C000F368B3EB0A033FF47CAF012B7EDD4FF0D5
:1031D000FF33F2691C449B184FD4AA074AD1374ADF
:1031E000E91782FB05AE6420C1EB6E1100FB1151A3
:1031F00000296FD105F26C7582FB05B2E917C1EBAE
:10320000E2124FF4C87101FB125540F26D12002D0D
:1032100008BF4FF4B7729A42D8BFC2EB0303F36101
:103220004FE799463B6A984451E74FF4B77200E77D
:1032300005F26C7283FB02A3D117C1EBE3134FF4C9
:10324000C87101FB1322002A7FF4C1AE89E79045C3
:1032500005DB4FF001099DE74FF4B77315E7C8454B
:10326000ACBF4FF000094FF0010993E74FF0FF307A
:10327000BDE8F88F40F26D12CDE76B1E99072CD197
:103280000E4AD91782FB03BE6420C1EB6E1100FB0E
:1032900011332BBB05F26B7582FB0502EB17C3EBF9
:1032A000E2134FF4C87202FB135540F26D13002D68
:1032B00018BF4FF4B673B2E7D83C00001F85EB513E
:1032C00080510100640F002093244992981CD8BFBC
:1032D00001237EE74FF4B7729DE74FF4B6739EE784
:1032E00040F26D139BE700BF2DE9F04F83B0044619
:1032F00000F03EFB40F2B1739C42064640F39880DA
:103300005B4BE01783FB04276FF4F66204EB0209C2
:10331000A4F26D716FF4C86C83FB01254FEAA90913
:1033200004EB0C02A4F2B278C0EBE71C40F26D1A79
:103330004FF4C87B0AFB08980BFB1C4B83FB0293E2
:10334000C0EB6717642000FB1747C917A1EB651195
:10335000D2178844C2EBE3137460DBF1010B04F075
:103360000304DFF818C1019438BF4FF0000B9844F4
:1033700034460025BA46237A4A2B5DD0442B6FD0C1
:10338000019A002A4ED05B465800E7681844394B32
:10339000012F03EB001066DDBF00A0F10809B9445E
:1033A000031F414653F8042F4B451144FAD1043F03
:1033B0000097314F01F1040989FB072309EB030250
:1033C0004FEAE973C3EBA202C2EBC2026369C2EB2C
:1033D00009092269B3EB0903DDF8009002F1FF321D
:1033E00048BF073350F80900C2EBC20213448342BE
:1033F00002DB073B8342FCDA0B44A069226A0CFB28
:10340000030001350244022D44F81C2FB3D1B36BE5
:10341000F26901209A42ACBF00230123336003B05C
:10342000BDE8F08FBAF1000F0CBF5B460123ABE79C
:10343000002003B0BDE8F08F6269019902EB080338
:1034400049B9BAF1000F06D03B2AD4BF00220122AD
:103450001344013BD1E7BBF1000FF5D15A46F7E722
:1034600063694344C9E7002741460097A1E700BFCD
:103470001F85EB51383D0000932449928051010093
:103480002DE9F84F80460E46174600F071FAD8F83D
:103490000020B54B824683FB0203D117B34C134483
:1034A000C1EB234304FB1324002C04DA04F5A834F5
:1034B00004F5C074013BAE49E21781FB049CA444AF
:1034C000C2EBEC2C4FF4616101FB1C41A948AA4CF2
:1034D0001A1D80FB01B082FB04454418C817C0EBDD
:1034E000641402EB0509D017C0EBA900C0EBC000C3
:1034F000101AC4EB041548BF0730A1EB8501002B5F
:1035000086E81210B0619D4D9D4840F2B2744FF4B0
:10351000C87CC0F2A5804FF0640B10E0E21785FB79
:103520000491C2EBE1120CFB1242D2F1010238BF4E
:10353000002250F822108B4211DB01345B1AA207E3
:10354000ECD185FB0421E217C2EB61110BFB1141A9
:103550000029E4D0012250F822108B42EDDA4FEA24
:1035600042094A44A4F26C75864900201201F361B5
:10357000756130618D5801EB0209AB4208DB4946A9
:10358000012232615B1B51F8045F01329D42F8DD7C
:103590000133F36027B1002333623046BDE8F88F72
:1035A00000F022F9784B1B68002B7AD13762DAF8E9
:1035B00020006F4FC51780FB0723C118C5EBE12121
:1035C0004FF4616303FB11016A4C87FB002E81FB02
:1035D000042384FB0172CC17CF18C4EB67170A448D
:1035E0000EEB0003C4EB6212C7EB071E346877686A
:1035F000B068A1EB8E01611AC5EBE323C31ABA1AB6
:103600003B2986E80E0068DD01323C3986E8060079
:103610003B2A40F3838001333C3AB3607260172B3E
:1036200062DDB269F1690132062AC8BF0022B261C7
:10363000F2680131F161183B01323169B360F26027
:1036400059F821309A4206DD0131D31A0C29F36072
:1036500000F08380316100F0C9F83046BDE8F88F92
:103660004FF064090FE0E21785FB04B1C2EBE112F1
:103670000CFB1242D2F1010238BF002250F8221096
:103680005B187FF56CAF013CA107ECD185FB04B161
:10369000E217C2EB611109FB11410029E4D00122BC
:1036A000ECE7DAF80430A34204D02046FFF71CFE12
:1036B00000284BD0DAF80030002B37D0D8F8003093
:1036C000DAF81C20934245DBDAF83820934241DADD
:1036D00001233362DAF83C006BE7002998DA013AFB
:1036E0003C3186E8060093E7002BB4DAB269F16951
:1036F000013A48BF0622B261F26801391833013A33
:10370000F161B360F260002AA5D13369013B3DD479
:1037100033619B0059F80330F3609CE7002ABFF641
:103720007EAF013B3C32B360726078E7D8F800307E
:10373000DAF81C209342CBDADAF838209342ACBF97
:10374000002301233362002BC4D130E74FF0FF3355
:1037500033622CE70023336229E7726900230132C8
:1037600072613361F36176E707452EC28051010033
:10377000C5B3A29189888888932449921F85EB510B
:10378000983D0000383D0000640F002073690B2154
:103790005A1E72619207316114D003F26B73DA170B
:1037A00010484FF4C87180FB03B0C2EBE01201FB7C
:1037B0001233D3F1010338BF002303F5B673F3616D
:1037C0002C23A7E7074903F26B7381FB0371DA1718
:1037D000C2EB6111642000FB11310029E0D040F2FE
:1037E0006D13ECE71F85EB51704700BF704700BFBA
:1037F000024B13B1024800F07DB870470000000092
:10380000413900002DE9F04F384B85B01B6802901C
:1038100003F5A47201930F460392019BD3F84881EC
:10382000B8F1000F1CD0DDF80CB04FF00109DA46FA
:10383000D8F804305C1E11D408F188059E1C05EBF5
:10384000830508EB860677B1EB6FBB420BD0013CDA
:10385000631CA5F10405A6F10406F4D1244A7ABB41
:1038600005B0BDE8F08FD8F8042056F8043C013AC2
:10387000A24216BF0022C8F8044046F8042C002BD0
:10388000E5D009FA04F2D8F88811D8F804B00A4251
:1038900010D0D8F88C110A420ED1029855F8041CA9
:1038A0009847D8F804305B45B7D1DAF80030434583
:1038B000CDD0B2E79847F4E755F8040C9847F0E705
:1038C000D8F804306BB9D8F8003063B14046CAF874
:1038D0000030AFF30080DAF80080B8F1000FA7D114
:1038E000BEE7D8F80030C2469846F6E7D43C000060
:1038F00000000000014600200246034600F03CB8EC
:1039000010B4002991FBF2F402FB141306DB002B28
:103910000EDB046043605DF8044B7047002BC4BFAE
:1039200004F1FF349B18046043605DF8044B70475A
:1039300001349B1A046043605DF8044B704700BF7C
:1039400038B5094D094C641BA41018BF05EB84055C
:1039500005D0013C55F8043D9847002CF9D1BDE84D
:10396000384000F065B800BF400600204406002043
:103970000048704774040020F0B5274C85B02668D5
:103980000746D6F84841002C40D065681F2D1EDD43
:10399000224818B94FF0FF3005B0F0BD4FF4C870A1
:1039A000039102920193AFF3008003990446029AB7
:1039B000019B0028EED0D6F84851002025606060B9
:1039C0000546C6F84841C4F88801C4F88C013FB9DF
:1039D0006B1C00200235636044F8251005B0F0BD73
:1039E0000126AE4004EB8500C0F88820D4F8882179
:1039F000022F42EA0602C4F88821C0F80831E7D154
:103A0000D4F88C311E43C4F88C61E1E706F5A67446
:103A1000C6F84841B9E700BFD43C000000000000F0
:103A2000FEE700BFF8B500BFF8BC08BC9E46704773
:103A3000F8B500BFF8BC08BC9E4670470000000007
:103A400001B40248844601BC604700BFBD050020A8
:103A500001B40248844601BC604700BF3505002020
:103A60002E2E2F656D6C69622F7372632F656D5FEB
:103A7000636D752E63002E2E2F656D6C69622F733A
:103A800072632F656D5F7072732E63002E2E2F652B
:103A90006D6C69622F7372632F656D5F656D752E36
:103AA00063002E2E2F656D6C69622F7372632F6514
:103AB0006D5F6770696F2E63002E2E2F656D6C69C8
:103AC000622F7372632F656D5F6C6574696D6572CB
:103AD0002E63002E2E2F656D6C69622F7372632F1B
:103AE000656D5F7274632E63002E2E2F656D6C6999
:103AF000622F7372632F656D5F73797374656D2EBA
:103B000063002E2E2F656D6C69622F7372632F65B3
:103B10006D5F74696D65722E63002E2E2F656D6C5E
:103B200069622F7372632F656D5F6D73632E63001F
:103B300000000000000000000C0000000100000078
:103B40000000000070000000000000000000000005
:103B5000FFFFFFFF008000002E2E2F647269766544
:103B600072732F416C61726D436C6F636B2E6300D7
:103B70002E2E2F647269766572732F457874496EA4
:103B8000742E63002E2E2F647269766572732F4B2C
:103B90006579732E6300000101000003000000013D
:103BA000000001040000000000000000000200000E
:103BB00000000000010000000200000000030000FF
:103BC00000002E2E2F647269766572732F65657002
:103BD000726F6D5F656D756C6174696F6E2E6300D9
:103BE00000000140000000400040004010E000E004
:103BF000B081E00F00000E4000E000E000A00040B7
:103C00000004014000080140002000400010004076
:103C1000001400400060004000000C4000A00C4078
:103C200000200C40D0FF0FE000C80040000004E07E
:103C300000200840F0ED00E000800C4000C0004093
:103C400000C40040004008400044084000C00C4050
:103C500000ED00E00080084000600C4090ED00E0C6
:103C60000000084000E100E00080E00F0060084034
:103C7000006408400068084007000000211D0000A3
:103C8000C0000000BD230000000000000000000094
:103C9000FA0014000D2200002450524A5F494E469B
:103CA0004F24000053657020313920323031390003
:103CB0000000000031363A31393A30330000312EFD
:103CC00030000000000000000000000000000000C4
:103CD0004300000040000020000000001F00000022
:103CE0003B0000005A000000780000009700000030
:103CF000B5000000D4000000F30000001101000036
:103D0000300100004E0100001F0000001C000000F8
:103D10001F0000001E0000001F0000001E00000029
:103D20001F0000001F0000001E0000001F00000018
:103D30001E0000001F0000001F0000001C0000000B
:103D40001F0000001E0000001F0000001E000000F9
:103D50001F0000001F0000001E0000001F000000E8
:103D60001E0000001F0000001F0000001D000000DA
:103D70001F0000001E0000001F0000001E000000C9
:103D80001F0000001F0000001E0000001F000000B8
:103D90001E0000001F0000006D0100006E01000009
:083DA000474D54000000000033
:083DA800ACC3FF7F0100000025
:103DB00000000000008000000048E801FF00000053
:103DC00078690000FFFFFFFF786900001000000025
:103DD0000A0000000100000078690000FFFFFFFFFB
:103DE000FFFFFFFFFFFFFF00FFFFFFAA0000000033
:103DF000000000002C03002094030020FC0300209E
:103E000000000000000000000000000000000000B2
:103E100000000000000000000000000000000000A2
:103E200000000000D03C0000000000000000000086
:103E30000000000000000000000000000000000082
:103E40000000000000000000000000000000000072
:103E50000000000000000000000000000000000062
:103E60000000000000000000000000000000000052
:103E70000000000000000000000000000000000042
:103E80000000000000000000000000000000000032
:103E90000000000000000000010000000000000021
:103EA0000E33CDAB34126DE6ECDE05000B000000E6
:103EB0000000000000000000000000000000000002
:103EC00000000000000000000000000000000000F2
:103ED00000000000000000000000000000000000E2
:103EE00000000000000000000000000000000000D2
:10421000000000000000000040000020A03D000061
:10422000A03D000001000000000000004A00000066
:10423000000000000000000000000000000000007E
:1042400000000000000000004A0000000000000024
:10425000000000000000000000000000000000005E
:1042600000000000094B01221861DA60DB6913F0DD
:10427000060008D05A0705D413F0020F0CBF002027
:10428000FE2000E0FF2040B2704700BF00000C405D
:1042900030B5124B124AD46924070DD453B1013BF7
:1042A000F8E70823D3600D4B0D4AD06910F00100E8
:1042B0000DD183B9FD200EE0002BFBD000238B42F3
:1042C000EFDA50F82340064D0133AC61F7E7002BDD
:1042D000F0D0013BE8E740B230BD00BF80969800C7
:1042E00000000C40C0F3080310B5044623B11C487D
:1042F0004FF4A87100F070F81A4B9A6842F001026E
:104300009A6001221C61DA60DA69510705D59A6862
:10431000FF2022F001029A601FE0DA69920705D5BA
:104320009A68FE2022F001029A6016E00222DA600A
:104330000D4A0C4BD869194610F0010002D012B199
:10434000013AF6E72AB98B68FD2023F001038B6060
:1043500003E09A6822F001029A6040B210BD00BFEB
:104360001A3B000000000C40809698002DE9F041B7
:10437000144682070546884604D0154840F2B91114
:1043800000F02AF8A30704D011484FF4DE7100F0C2
:1043900023F8104BA7109A68002442F001029A609B
:1043A000BC420CDAA600A819FFF75CFF40B908EB85
:1043B00006000121FFF76CFF10B90134F0E700207F
:1043C000044B40B29A6822F001029A60BDE8F08185
:1043D0001A3B000000000C4001B40248844601BCB6
:1043E000604700BFFD020000F1370000250100001A
:0443F00001010000C7
:0443F40000000000C5
:0400000300002BCD01
:00000001FF
